:020000040800F2
:1000000000000220AD0200088102000883020008FF
:10001000850200088702000889020008000000002D
:100020000000000000000000000000008B0200083B
:100030008D020008000000008F02000891020008F5
:10004000FD020008FD020008FD020008FD02000894
:10005000FD020008FD020008FD020008FD02000884
:10006000FD020008FD020008FD020008FD02000874
:10007000FD020008FD020008FD020008FD02000864
:10008000FD020008FD020008FD020008000000005B
:10009000000000000000000000000000FD02000859
:1000A000FD020008FD020008FD020008FD02000834
:1000B000FD020008FD020008FD020008FD02000824
:1000C000FD020008FD020008FD020008FD02000814
:1000D000FD020008FD020008FD020008000000000B
:1000E000FD020008FD020008FD02000800000000FB
:1000F000000000000000000000000000FD020008F9
:1001000000000000FD020008FD020008FD020008DA
:1001100000000000000000000000000000000000DF
:10012000FD020008FD020008FD020008FD020008B3
:10013000FD020008000000000000000000000000B8
:10014000000000000000000000000000FD020008A8
:10015000FD020008FD020008FD020008FD02000883
:10016000FD020008FD020008000000000000000081
:10017000000000000000000000000000000000007F
:1001800000000000FD020008000000000000000068
:08019000FD020008FD02000859
:100198000348044B834202D0034B03B1184770470E
:1001A8000400002004000020000000000548064B61
:1001B8001B1AD90F01EBA301491002D0034B03B15D
:1001C80018477047040000200400002000000000C9
:1001D80010B5064C237843B9FFF7DAFF044B13B187
:1001E8000448AFF300800123237010BD04000020F1
:1001F800000000004803000808B5054B1BB105497D
:100208000548AFF30080BDE80840FFF7CFBF00BF47
:10021800000000000800002048030008034A116895
:10022800034B1B780B441360704700BF200000206D
:10023800000000200D4AD2F8303843F00103C2F81C
:1002480030380B4B1A6842F480621A601A6822F43C
:1002580000621A6003E00133064A9342FBDD044A58
:10026800536983F0200353610023F5E7003002400F
:10027800000002409F860100FEE7FEE7FEE7FEE77A
:10028800FEE770477047704708B5FFF7C7FF08BD1E
:10029800034AD2F8883043F47003C2F888307047B4
:1002A80000ED00E0DFF834D00D480E490E4A002377
:1002B80002E0D458C4500433C4188C42F9D30B4A12
:1002C8000B4C002301E013600432A242FBD3FFF77A
:1002D800DFFF00F011F8FFF7ADFF704700000220C4
:1002E800000000200400002068030008040000202B
:1002F80024000020FEE7000070B50D4D0D4C641B76
:10030800A4100026A64209D10B4D0C4C00F018F899
:10031800641BA4100026A64205D170BD55F8043B05
:1003280098470136EEE755F8043B98470136F2E75F
:100338006003000860030008600300086403000805
:10034800F8B500BFF8BC08BC9E467047F8B500BFBA
:08035800F8BC08BC9E4670478A
:04036000010200088E
:04036400D9010008B3
:040368000100000090
:04000005080002AD40
:00000001FF
